{
  "contractName": "Number",
  "abi": [
    {
      "constant": true,
      "inputs": [],
      "name": "Num1",
      "outputs": [
        {
          "name": "",
          "type": "uint256"
        }
      ],
      "payable": false,
      "stateMutability": "view",
      "type": "function",
      "signature": "0x7e09697d"
    },
    {
      "anonymous": false,
      "inputs": [
        {
          "indexed": false,
          "name": "n",
          "type": "uint256"
        }
      ],
      "name": "eventSetNum",
      "type": "event",
      "signature": "0xbbc80d8215e30857827bd3c95731f06c1d65f4f24a49a91b34ba277e04601c9a"
    },
    {
      "constant": false,
      "inputs": [
        {
          "name": "_n",
          "type": "uint256"
        }
      ],
      "name": "SetNum",
      "outputs": [
        {
          "name": "",
          "type": "bool"
        }
      ],
      "payable": false,
      "stateMutability": "nonpayable",
      "type": "function",
      "signature": "0xb5935c88"
    },
    {
      "constant": true,
      "inputs": [],
      "name": "GetNum",
      "outputs": [
        {
          "name": "ret",
          "type": "uint256"
        }
      ],
      "payable": false,
      "stateMutability": "view",
      "type": "function",
      "signature": "0x26c6a34c"
    }
  ],
  "bytecode": "0x608060405234801561001057600080fd5b5061018b806100206000396000f3fe608060405260043610610057576000357c0100000000000000000000000000000000000000000000000000000000900463ffffffff16806326c6a34c1461005c5780637e09697d14610087578063b5935c88146100b2575b600080fd5b34801561006857600080fd5b50610071610105565b6040518082815260200191505060405180910390f35b34801561009357600080fd5b5061009c61010e565b6040518082815260200191505060405180910390f35b3480156100be57600080fd5b506100eb600480360360208110156100d557600080fd5b8101908080359060200190929190505050610114565b604051808215151515815260200191505060405180910390f35b60008054905090565b60005481565b6000816000819055507fbbc80d8215e30857827bd3c95731f06c1d65f4f24a49a91b34ba277e04601c9a6000546040518082815260200191505060405180910390a16001905091905056fea165627a7a723058204be278e5f8615399c8cfc737b0b9d27890b4931669c7069a969cdfbc0133c2770029",
  "source": "pragma solidity >=0.4.21 <0.6.0;\ncontract Number{\n    uint256 public Num1;\n    event eventSetNum(uint256 n);\n    function SetNum(uint256 _n) public returns(bool){\n        Num1 = _n;\n        emit eventSetNum(Num1);\n        return true;\n    }\n    function GetNum() public view returns(uint256 ret){\n        ret = Num1;\n    }\n}",
  "sourcePath": "/home/hlf/Github/blockchain-learn/contract_web3/simpleNumber/sc/contracts/Number.sol",
  "compiler": {
    "name": "solc",
    "version": "0.5.0+commit.1d4f565a.Emscripten.clang"
  },
  "schemaVersion": "3.0.2",
  "updatedAt": "2019-02-15T08:07:01.618Z"
}