{
  "contractName": "CardBase",
  "abi": [
    {
      "constant": true,
      "inputs": [
        {
          "name": "",
          "type": "uint256"
        }
      ],
      "name": "cardIndexToApproved",
      "outputs": [
        {
          "name": "",
          "type": "address"
        }
      ],
      "payable": false,
      "stateMutability": "view",
      "type": "function"
    },
    {
      "constant": true,
      "inputs": [],
      "name": "nftmnger",
      "outputs": [
        {
          "name": "",
          "type": "address"
        }
      ],
      "payable": false,
      "stateMutability": "view",
      "type": "function"
    },
    {
      "constant": true,
      "inputs": [
        {
          "name": "_hashdata",
          "type": "bytes32"
        },
        {
          "name": "_v",
          "type": "uint8"
        },
        {
          "name": "_r",
          "type": "bytes32"
        },
        {
          "name": "_s",
          "type": "bytes32"
        }
      ],
      "name": "signdecodeVRS",
      "outputs": [
        {
          "name": "retaddr",
          "type": "address"
        }
      ],
      "payable": false,
      "stateMutability": "pure",
      "type": "function"
    },
    {
      "constant": true,
      "inputs": [
        {
          "name": "signature",
          "type": "bytes"
        },
        {
          "name": "hashdata",
          "type": "bytes32"
        }
      ],
      "name": "signdecode",
      "outputs": [
        {
          "name": "signature_address",
          "type": "address"
        }
      ],
      "payable": false,
      "stateMutability": "pure",
      "type": "function"
    },
    {
      "constant": true,
      "inputs": [
        {
          "name": "",
          "type": "uint256"
        }
      ],
      "name": "mapCardOwner",
      "outputs": [
        {
          "name": "",
          "type": "address"
        }
      ],
      "payable": false,
      "stateMutability": "view",
      "type": "function"
    },
    {
      "constant": true,
      "inputs": [
        {
          "name": "",
          "type": "bytes24"
        }
      ],
      "name": "mapObjectIdToTokenId",
      "outputs": [
        {
          "name": "",
          "type": "uint256"
        }
      ],
      "payable": false,
      "stateMutability": "view",
      "type": "function"
    },
    {
      "constant": true,
      "inputs": [
        {
          "name": "",
          "type": "address"
        },
        {
          "name": "",
          "type": "uint256"
        }
      ],
      "name": "mapOwnerCardsAccount",
      "outputs": [
        {
          "name": "",
          "type": "uint256"
        }
      ],
      "payable": false,
      "stateMutability": "view",
      "type": "function"
    },
    {
      "inputs": [],
      "payable": false,
      "stateMutability": "nonpayable",
      "type": "constructor"
    },
    {
      "anonymous": false,
      "inputs": [
        {
          "indexed": false,
          "name": "tokenid",
          "type": "uint256"
        },
        {
          "indexed": false,
          "name": "cardid",
          "type": "bytes24"
        },
        {
          "indexed": false,
          "name": "cardtype",
          "type": "uint256"
        },
        {
          "indexed": false,
          "name": "nerror",
          "type": "uint256"
        }
      ],
      "name": "CreateCard",
      "type": "event"
    },
    {
      "anonymous": false,
      "inputs": [
        {
          "indexed": false,
          "name": "from",
          "type": "address"
        },
        {
          "indexed": false,
          "name": "to",
          "type": "address"
        },
        {
          "indexed": false,
          "name": "tokenId",
          "type": "uint256"
        }
      ],
      "name": "Transfer",
      "type": "event"
    },
    {
      "anonymous": false,
      "inputs": [
        {
          "indexed": false,
          "name": "owner",
          "type": "address"
        },
        {
          "indexed": false,
          "name": "approved",
          "type": "address"
        },
        {
          "indexed": false,
          "name": "tokenId",
          "type": "uint256"
        }
      ],
      "name": "Approval",
      "type": "event"
    },
    {
      "constant": false,
      "inputs": [
        {
          "name": "_cardid",
          "type": "bytes24"
        },
        {
          "name": "_cardtype",
          "type": "uint256"
        },
        {
          "name": "_cardowner",
          "type": "address"
        },
        {
          "name": "v",
          "type": "uint8"
        },
        {
          "name": "r",
          "type": "bytes32"
        },
        {
          "name": "s",
          "type": "bytes32"
        }
      ],
      "name": "createNtfCard",
      "outputs": [
        {
          "name": "",
          "type": "bool"
        }
      ],
      "payable": false,
      "stateMutability": "nonpayable",
      "type": "function"
    },
    {
      "constant": true,
      "inputs": [
        {
          "name": "_cardid",
          "type": "bytes24"
        }
      ],
      "name": "getCardInfo",
      "outputs": [
        {
          "name": "tokenid",
          "type": "uint256"
        },
        {
          "name": "_cardtype",
          "type": "uint256"
        },
        {
          "name": "_activated",
          "type": "bool"
        },
        {
          "name": "_owner",
          "type": "address"
        }
      ],
      "payable": false,
      "stateMutability": "view",
      "type": "function"
    },
    {
      "constant": true,
      "inputs": [
        {
          "name": "_owner",
          "type": "address"
        }
      ],
      "name": "tokensOfOwner",
      "outputs": [
        {
          "name": "tokenIds",
          "type": "uint256[]"
        }
      ],
      "payable": false,
      "stateMutability": "view",
      "type": "function"
    },
    {
      "constant": true,
      "inputs": [
        {
          "name": "_tokenid",
          "type": "uint256"
        }
      ],
      "name": "getCardInfoByTokenId",
      "outputs": [
        {
          "name": "_cardtype",
          "type": "uint256"
        },
        {
          "name": "_activated",
          "type": "bool"
        },
        {
          "name": "_owner",
          "type": "address"
        }
      ],
      "payable": false,
      "stateMutability": "view",
      "type": "function"
    },
    {
      "constant": true,
      "inputs": [],
      "name": "totalSupply",
      "outputs": [
        {
          "name": "total",
          "type": "uint256"
        }
      ],
      "payable": false,
      "stateMutability": "view",
      "type": "function"
    },
    {
      "constant": true,
      "inputs": [
        {
          "name": "_owner",
          "type": "address"
        }
      ],
      "name": "balanceOf",
      "outputs": [
        {
          "name": "balance",
          "type": "uint256"
        }
      ],
      "payable": false,
      "stateMutability": "view",
      "type": "function"
    },
    {
      "constant": true,
      "inputs": [
        {
          "name": "_tokenId",
          "type": "uint256"
        }
      ],
      "name": "ownerOf",
      "outputs": [
        {
          "name": "owner",
          "type": "address"
        }
      ],
      "payable": false,
      "stateMutability": "view",
      "type": "function"
    },
    {
      "constant": false,
      "inputs": [
        {
          "name": "_to",
          "type": "address"
        },
        {
          "name": "_tokenId",
          "type": "uint256"
        }
      ],
      "name": "approve",
      "outputs": [],
      "payable": false,
      "stateMutability": "nonpayable",
      "type": "function"
    },
    {
      "constant": false,
      "inputs": [
        {
          "name": "_to",
          "type": "address"
        },
        {
          "name": "_tokenId",
          "type": "uint256"
        }
      ],
      "name": "transfer",
      "outputs": [],
      "payable": false,
      "stateMutability": "nonpayable",
      "type": "function"
    },
    {
      "constant": false,
      "inputs": [
        {
          "name": "_from",
          "type": "address"
        },
        {
          "name": "_to",
          "type": "address"
        },
        {
          "name": "_tokenId",
          "type": "uint256"
        }
      ],
      "name": "transferFrom",
      "outputs": [],
      "payable": false,
      "stateMutability": "nonpayable",
      "type": "function"
    },
    {
      "constant": true,
      "inputs": [
        {
          "name": "",
          "type": "bytes4"
        }
      ],
      "name": "supportsInterface",
      "outputs": [
        {
          "name": "",
          "type": "bool"
        }
      ],
      "payable": false,
      "stateMutability": "view",
      "type": "function"
    }
  ],
  "bytecode": "0x608060405234801561001057600080fd5b5061001961023b565b6060604051908101604052807f305f696e6465780000000000000000000000000000000000000000000000000067ffffffffffffffff19168152602001600081526020016000151581525090506000600180839080600181540180825580915050906001820390600052602060002090600302016000909192909190915060008201518160000160006101000a81548177ffffffffffffffffffffffffffffffffffffffffffffffff021916908368010000000000000000900402179055506020820151816001015560408201518160020160006101000a81548160ff02191690831515021790555050500390508060036000846000015167ffffffffffffffff191667ffffffffffffffff1916815260200190815260200160002081905550336002600083815260200190815260200160002060006101000a81548173ffffffffffffffffffffffffffffffffffffffff021916908373ffffffffffffffffffffffffffffffffffffffff160217905550600460003373ffffffffffffffffffffffffffffffffffffffff1673ffffffffffffffffffffffffffffffffffffffff168152602001908152602001600020819080600181540180825580915050906001820390600052602060002001600090919290919091505550336000806101000a81548173ffffffffffffffffffffffffffffffffffffffff021916908373ffffffffffffffffffffffffffffffffffffffff160217905550505061026a565b606060405190810160405280600067ffffffffffffffff19168152602001600081526020016000151581525090565b611c69806102796000396000f3fe6080604052600436106100fc576000357c0100000000000000000000000000000000000000000000000000000000900463ffffffff16806301ffc9a714610101578063095ea7b31461017357806318160ddd146101ce57806323b872dd146101f957806325fa4f8d14610274578063394baa0b1461031d5780633ad49c841461039857806343046f1b146103ef57806345bfb7661461048b5780636352211e1461052a57806370a08231146105a557806376c73bf81461060a5780637b8522dc1461071c5780638462151c14610797578063a7325cad1461083d578063a9059cbb14610897578063d70c90e0146108f2578063f33244291461097f575b600080fd5b34801561010d57600080fd5b506101596004803603602081101561012457600080fd5b8101908080357bffffffffffffffffffffffffffffffffffffffffffffffffffffffff191690602001909291905050506109ee565b604051808215151515815260200191505060405180910390f35b34801561017f57600080fd5b506101cc6004803603604081101561019657600080fd5b81019080803573ffffffffffffffffffffffffffffffffffffffff169060200190929190803590602001909291905050506109f8565b005b3480156101da57600080fd5b506101e3610b5a565b6040518082815260200191505060405180910390f35b34801561020557600080fd5b506102726004803603606081101561021c57600080fd5b81019080803573ffffffffffffffffffffffffffffffffffffffff169060200190929190803573ffffffffffffffffffffffffffffffffffffffff16906020019092919080359060200190929190505050610b69565b005b34801561028057600080fd5b50610303600480360360c081101561029757600080fd5b81019080803567ffffffffffffffff1916906020019092919080359060200190929190803573ffffffffffffffffffffffffffffffffffffffff169060200190929190803560ff1690602001909291908035906020019092919080359060200190929190505050610f44565b604051808215151515815260200191505060405180910390f35b34801561032957600080fd5b506103566004803603602081101561034057600080fd5b8101908080359060200190929190505050611387565b604051808273ffffffffffffffffffffffffffffffffffffffff1673ffffffffffffffffffffffffffffffffffffffff16815260200191505060405180910390f35b3480156103a457600080fd5b506103ad6113ba565b604051808273ffffffffffffffffffffffffffffffffffffffff1673ffffffffffffffffffffffffffffffffffffffff16815260200191505060405180910390f35b3480156103fb57600080fd5b506104496004803603608081101561041257600080fd5b8101908080359060200190929190803560ff16906020019092919080359060200190929190803590602001909291905050506113df565b604051808273ffffffffffffffffffffffffffffffffffffffff1673ffffffffffffffffffffffffffffffffffffffff16815260200191505060405180910390f35b34801561049757600080fd5b506104cf600480360360208110156104ae57600080fd5b81019080803567ffffffffffffffff19169060200190929190505050611452565b60405180858152602001848152602001831515151581526020018273ffffffffffffffffffffffffffffffffffffffff1673ffffffffffffffffffffffffffffffffffffffff16815260200194505050505060405180910390f35b34801561053657600080fd5b506105636004803603602081101561054d57600080fd5b81019080803590602001909291905050506114fe565b604051808273ffffffffffffffffffffffffffffffffffffffff1673ffffffffffffffffffffffffffffffffffffffff16815260200191505060405180910390f35b3480156105b157600080fd5b506105f4600480360360208110156105c857600080fd5b81019080803573ffffffffffffffffffffffffffffffffffffffff16906020019092919050505061153b565b6040518082815260200191505060405180910390f35b34801561061657600080fd5b506106da6004803603604081101561062d57600080fd5b810190808035906020019064010000000081111561064a57600080fd5b82018360208201111561065c57600080fd5b8035906020019184600183028401116401000000008311171561067e57600080fd5b91908080601f016020809104026020016040519081016040528093929190818152602001838380828437600081840152601f19601f82011690508083019250505050505050919291929080359060200190929190505050611587565b604051808273ffffffffffffffffffffffffffffffffffffffff1673ffffffffffffffffffffffffffffffffffffffff16815260200191505060405180910390f35b34801561072857600080fd5b506107556004803603602081101561073f57600080fd5b8101908080359060200190929190505050611711565b604051808273ffffffffffffffffffffffffffffffffffffffff1673ffffffffffffffffffffffffffffffffffffffff16815260200191505060405180910390f35b3480156107a357600080fd5b506107e6600480360360208110156107ba57600080fd5b81019080803573ffffffffffffffffffffffffffffffffffffffff169060200190929190505050611744565b6040518080602001828103825283818151815260200191508051906020019060200280838360005b8381101561082957808201518184015260208101905061080e565b505050509050019250505060405180910390f35b34801561084957600080fd5b506108816004803603602081101561086057600080fd5b81019080803567ffffffffffffffff191690602001909291905050506117db565b6040518082815260200191505060405180910390f35b3480156108a357600080fd5b506108f0600480360360408110156108ba57600080fd5b81019080803573ffffffffffffffffffffffffffffffffffffffff169060200190929190803590602001909291905050506117f3565b005b3480156108fe57600080fd5b5061092b6004803603602081101561091557600080fd5b8101908080359060200190929190505050611b60565b60405180848152602001831515151581526020018273ffffffffffffffffffffffffffffffffffffffff1673ffffffffffffffffffffffffffffffffffffffff168152602001935050505060405180910390f35b34801561098b57600080fd5b506109d8600480360360408110156109a257600080fd5b81019080803573ffffffffffffffffffffffffffffffffffffffff16906020019092919080359060200190929190505050611bde565b6040518082815260200191505060405180910390f35b6000809050919050565b3373ffffffffffffffffffffffffffffffffffffffff166002600083815260200190815260200160002060009054906101000a900473ffffffffffffffffffffffffffffffffffffffff1673ffffffffffffffffffffffffffffffffffffffff16141515610a6557600080fd5b816005600083815260200190815260200160002060006101000a81548173ffffffffffffffffffffffffffffffffffffffff021916908373ffffffffffffffffffffffffffffffffffffffff1602179055507f8c5be1e5ebec7d5bd14f71427d1e84f3dd0314c0f7b2291e5b200ac8c7c3b925338383604051808473ffffffffffffffffffffffffffffffffffffffff1673ffffffffffffffffffffffffffffffffffffffff1681526020018373ffffffffffffffffffffffffffffffffffffffff1673ffffffffffffffffffffffffffffffffffffffff168152602001828152602001935050505060405180910390a15050565b60006001808054905003905090565b600073ffffffffffffffffffffffffffffffffffffffff168273ffffffffffffffffffffffffffffffffffffffff1614151515610ba557600080fd5b3073ffffffffffffffffffffffffffffffffffffffff168273ffffffffffffffffffffffffffffffffffffffff1614151515610be057600080fd5b3373ffffffffffffffffffffffffffffffffffffffff166005600083815260200190815260200160002060009054906101000a900473ffffffffffffffffffffffffffffffffffffffff1673ffffffffffffffffffffffffffffffffffffffff16141515610c4d57600080fd5b8273ffffffffffffffffffffffffffffffffffffffff166002600083815260200190815260200160002060009054906101000a900473ffffffffffffffffffffffffffffffffffffffff1673ffffffffffffffffffffffffffffffffffffffff16141515610cba57600080fd5b600460008373ffffffffffffffffffffffffffffffffffffffff1673ffffffffffffffffffffffffffffffffffffffff168152602001908152602001600020819080600181540180825580915050906001820390600052602060002001600090919290919091505550816002600083815260200190815260200160002060006101000a81548173ffffffffffffffffffffffffffffffffffffffff021916908373ffffffffffffffffffffffffffffffffffffffff1602179055506000600460008573ffffffffffffffffffffffffffffffffffffffff1673ffffffffffffffffffffffffffffffffffffffff1681526020019081526020016000209050600080905060008090505b8280549050811015610e2057838382815481101515610dde57fe5b90600052602060002001541415610e13578281815481101515610dfd57fe5b9060005260206000200160009055809150610e20565b8080600101915050610dc3565b5060008190505b6001838054905003811015610e7b578260018201815481101515610e4757fe5b90600052602060002001548382815481101515610e6057fe5b90600052602060002001819055508080600101915050610e27565b50818054801515610e8857fe5b600190038181906000526020600020016000905590557fddf252ad1be2c89b69c2b068fc378daa952ba7f163c4a11628f55a4df523b3ef858585604051808473ffffffffffffffffffffffffffffffffffffffff1673ffffffffffffffffffffffffffffffffffffffff1681526020018373ffffffffffffffffffffffffffffffffffffffff1673ffffffffffffffffffffffffffffffffffffffff168152602001828152602001935050505060405180910390a15050505050565b600080600360008967ffffffffffffffff191667ffffffffffffffff1916815260200190815260200160002054141515610fe9577f314809a526dbe964a89ba226b74931c89827740a69450408650d63238bbef2c560008888614e25604051808581526020018467ffffffffffffffff191667ffffffffffffffff1916815260200183815260200182815260200194505050505060405180910390a16000905061137d565b6000878787604051602001808467ffffffffffffffff191667ffffffffffffffff191681526018018381526020018273ffffffffffffffffffffffffffffffffffffffff1673ffffffffffffffffffffffffffffffffffffffff166c0100000000000000000000000002815260140193505050506040516020818303038152906040528051906020012090506000809054906101000a900473ffffffffffffffffffffffffffffffffffffffff1673ffffffffffffffffffffffffffffffffffffffff166110b9828787876113df565b73ffffffffffffffffffffffffffffffffffffffff16141515611148577f314809a526dbe964a89ba226b74931c89827740a69450408650d63238bbef2c560008989614e23604051808581526020018467ffffffffffffffff191667ffffffffffffffff1916815260200183815260200182815260200194505050505060405180910390a1600091505061137d565b611150611c0e565b6060604051908101604052808a67ffffffffffffffff191681526020018981526020016001151581525090506000600180839080600181540180825580915050906001820390600052602060002090600302016000909192909190915060008201518160000160006101000a81548177ffffffffffffffffffffffffffffffffffffffffffffffff021916908368010000000000000000900402179055506020820151816001015560408201518160020160006101000a81548160ff02191690831515021790555050500390508060036000846000015167ffffffffffffffff191667ffffffffffffffff1916815260200190815260200160002081905550876002600083815260200190815260200160002060006101000a81548173ffffffffffffffffffffffffffffffffffffffff021916908373ffffffffffffffffffffffffffffffffffffffff160217905550600460008973ffffffffffffffffffffffffffffffffffffffff1673ffffffffffffffffffffffffffffffffffffffff1681526020019081526020016000208190806001815401808255809150509060018203906000526020600020016000909192909190915055507f314809a526dbe964a89ba226b74931c89827740a69450408650d63238bbef2c58183600001518460200151614e20604051808581526020018467ffffffffffffffff191667ffffffffffffffff1916815260200183815260200182815260200194505050505060405180910390a15050505b9695505050505050565b60056020528060005260406000206000915054906101000a900473ffffffffffffffffffffffffffffffffffffffff1681565b6000809054906101000a900473ffffffffffffffffffffffffffffffffffffffff1681565b600060018585858560405160008152602001604052604051808581526020018460ff1660ff1681526020018381526020018281526020019450505050506020604051602081039080840390855afa15801561143e573d6000803e3d6000fd5b505050602060405103519050949350505050565b600080600080600360008667ffffffffffffffff191667ffffffffffffffff19168152602001908152602001600020549350600060018581548110151561149557fe5b90600052602060002090600302019050806001015493508060020160009054906101000a900460ff1692506002600086815260200190815260200160002060009054906101000a900473ffffffffffffffffffffffffffffffffffffffff169150509193509193565b60006002600083815260200190815260200160002060009054906101000a900473ffffffffffffffffffffffffffffffffffffffff169050919050565b6000600460008373ffffffffffffffffffffffffffffffffffffffff1673ffffffffffffffffffffffffffffffffffffffff168152602001908152602001600020805490509050919050565b60006041835114151561159957600080fd5b6000806000602086015192506040860151915060ff6041870151169050601b8160ff1610156115c957601b810190505b601b8160ff1614806115de5750601c8160ff16145b15156115e957600080fd5b60606040805190810160405280601c81526020017f19457468657265756d205369676e6564204d6573736167653a0a3332000000008152509050600181876040516020018083805190602001908083835b60208310151561165f578051825260208201915060208101905060208303925061163a565b6001836020036101000a038019825116818451168082178552505050505050905001828152602001925050506040516020818303038152906040528051906020012083868660405160008152602001604052604051808581526020018460ff1660ff1681526020018381526020018281526020019450505050506020604051602081039080840390855afa1580156116fb573d6000803e3d6000fd5b5050506020604051035194505050505092915050565b60026020528060005260406000206000915054906101000a900473ffffffffffffffffffffffffffffffffffffffff1681565b6060600460008373ffffffffffffffffffffffffffffffffffffffff1673ffffffffffffffffffffffffffffffffffffffff1681526020019081526020016000208054806020026020016040519081016040528092919081815260200182805480156117cf57602002820191906000526020600020905b8154815260200190600101908083116117bb575b50505050509050919050565b60036020528060005260406000206000915090505481565b600073ffffffffffffffffffffffffffffffffffffffff168273ffffffffffffffffffffffffffffffffffffffff161415151561182f57600080fd5b3073ffffffffffffffffffffffffffffffffffffffff168273ffffffffffffffffffffffffffffffffffffffff161415151561186a57600080fd5b3373ffffffffffffffffffffffffffffffffffffffff166002600083815260200190815260200160002060009054906101000a900473ffffffffffffffffffffffffffffffffffffffff1673ffffffffffffffffffffffffffffffffffffffff161415156118d757600080fd5b600460008373ffffffffffffffffffffffffffffffffffffffff1673ffffffffffffffffffffffffffffffffffffffff168152602001908152602001600020819080600181540180825580915050906001820390600052602060002001600090919290919091505550816002600083815260200190815260200160002060006101000a81548173ffffffffffffffffffffffffffffffffffffffff021916908373ffffffffffffffffffffffffffffffffffffffff1602179055506000600460003373ffffffffffffffffffffffffffffffffffffffff1673ffffffffffffffffffffffffffffffffffffffff1681526020019081526020016000209050600080905060008090505b8280549050811015611a3d578383828154811015156119fb57fe5b90600052602060002001541415611a30578281815481101515611a1a57fe5b9060005260206000200160009055809150611a3d565b80806001019150506119e0565b5060008190505b6001838054905003811015611a98578260018201815481101515611a6457fe5b90600052602060002001548382815481101515611a7d57fe5b90600052602060002001819055508080600101915050611a44565b50818054801515611aa557fe5b600190038181906000526020600020016000905590557fddf252ad1be2c89b69c2b068fc378daa952ba7f163c4a11628f55a4df523b3ef338585604051808473ffffffffffffffffffffffffffffffffffffffff1673ffffffffffffffffffffffffffffffffffffffff1681526020018373ffffffffffffffffffffffffffffffffffffffff1673ffffffffffffffffffffffffffffffffffffffff168152602001828152602001935050505060405180910390a150505050565b600080600080600185815481101515611b7557fe5b90600052602060002090600302019050806001015493508060020160009054906101000a900460ff1692506002600086815260200190815260200160002060009054906101000a900473ffffffffffffffffffffffffffffffffffffffff169150509193909250565b600460205281600052604060002081815481101515611bf957fe5b90600052602060002001600091509150505481565b606060405190810160405280600067ffffffffffffffff1916815260200160008152602001600015158152509056fea165627a7a723058202952ab57e75257350f6c4323387fd7af180b16360de979616d94f8f82ba1d9340029",
  "source": "pragma solidity >=0.4.21 <0.6.0;\nimport \"./ERC721.sol\";\nimport \"./LibSignDecode.sol\";\ncontract CardBase is ERC721,LibSignDecode{\n    address public nftmnger;\n    struct Card {\n        bytes24  cardObjid; // 直接使用mongodb自动生成的objectid,不是erc721 token ID\n        uint256  cardtype;\n        bool     activated; //是否是激活状态\n    }\n    Card[] cards; //卡数组， 下标即tokenid\n    //a mpping from card IDs to the address the owns them. all cards have some valid owner address,\n    //card[0] with a solid owner\n    mapping(uint256=>address) public mapCardOwner; //tokenid => owner 卡的主人\n    //objectid=>tokenid; 卡objectid 到tokenid的映射,objectid使用mongodb自动创建的id\n    mapping(bytes24=>uint256) public mapObjectIdToTokenId;\n    //a mapping from owner address to count of tokens that address owns\n    //Used internally inside balanceOf() to resolve ownership count\n    mapping(address=>uint256[]) public mapOwnerCardsAccount;\n\n    // a mapping from cardid to an address that has been approved to call (transferFrom). each card\n    //can only have one approved address for transfer at any time. a zero value means no approval is outstanding.\n    mapping(uint256=>address) public cardIndexToApproved;\n\n\n    event CreateCard(uint256 tokenid,bytes24 cardid,  uint256 cardtype, uint256 nerror);\n\n\n\n    /////////////////////////////////////////////////////////////////////////\n    //event SignEvent(bytes32 hashv, bytes singer, address owner, bytes24 cardid, uint256 cardtype); --测试使用\n\n    ///////////////////////////////\n//创建card, 参数:cardobjid, cardtype, 和签名字符串\n    function createNtfCard(bytes24 _cardid, uint256 _cardtype,address _cardowner,uint8 v, bytes32 r, bytes32 s) public returns(bool){\n\n        if(mapObjectIdToTokenId[_cardid] != uint256(0)){\n            emit CreateCard(0,_cardid,_cardtype,20005); //重复提交\n            return false;\n        }\n\n        //verify signer\n       bytes32 hashval =  keccak256(abi.encodePacked(_cardid,_cardtype,_cardowner));\n\n        //emit SignEvent(hashval,signer,msg.sender,_cardid, _cardtype);  -- 测试使用\n\n        if(signdecodeVRS(hashval,v,r,s) != nftmnger){  //接收到的信息不是调用者的\n            emit CreateCard(0,_cardid,_cardtype,20003);\n            return false;\n        }  //can prove me is me\n\n\n        //tongg\n        Card memory card = Card(_cardid, _cardtype, true);\n\n        uint256 cardTokenId = cards.push(card)-1;\n        mapObjectIdToTokenId[card.cardObjid] = cardTokenId;\n        mapCardOwner[cardTokenId] = _cardowner;\n        mapOwnerCardsAccount[_cardowner].push(cardTokenId);\n\n        emit CreateCard(cardTokenId,card.cardObjid, card.cardtype,20000);\n\n\n    }\n    //\n    function getCardInfo(bytes24 _cardid) public view returns(uint256 tokenid, uint256 _cardtype, bool _activated, address _owner){\n        tokenid = mapObjectIdToTokenId[_cardid];\n        Card storage card = cards[tokenid];\n        _cardtype = card.cardtype;\n        _activated = card.activated;\n        _owner = mapCardOwner[tokenid];\n    }\n    function tokensOfOwner(address _owner) external view returns (uint256[] memory tokenIds){\n        tokenIds = mapOwnerCardsAccount[_owner];\n    }\n    //\n    function getCardInfoByTokenId(uint256 _tokenid) public view returns(uint256 _cardtype, bool _activated, address _owner){\n        Card storage card = cards[_tokenid];\n        _cardtype = card.cardtype;\n        _activated = card.activated;\n        _owner = mapCardOwner[_tokenid];\n    }\n\n    /*************stand erc721 sender operator*/\n    function totalSupply() public view returns (uint256 total){\n        return cards.length-1;\n    }\n    function balanceOf(address _owner) public view returns (uint256 balance){\n        return mapOwnerCardsAccount[_owner].length;\n    }\n    function ownerOf(uint256 _tokenId) external view returns (address owner){\n        return mapCardOwner[_tokenId];\n    }\n    function approve(address _to, uint256 _tokenId) external{\n        require(mapCardOwner[_tokenId] == msg.sender);\n\n        cardIndexToApproved[_tokenId] = _to;\n        emit Approval(msg.sender, _to, _tokenId);\n    }\n    function transfer(address _to, uint256 _tokenId) external{\n        require(_to != address(0));\n        require(_to != address(this));\n        require(mapCardOwner[_tokenId] == msg.sender);\n        mapOwnerCardsAccount[_to].push(_tokenId);\n        mapCardOwner[_tokenId] = _to;\n\n        uint256[] storage TokenIdarray = mapOwnerCardsAccount[msg.sender];\n        uint256 Index = 0;\n        for(uint256 i = 0; i< TokenIdarray.length;i++ ){\n            if(TokenIdarray[i] == _tokenId){\n                delete TokenIdarray[i];\n                Index = i;\n                break;\n            }\n        }\n        for(uint256 j = Index; j < TokenIdarray.length-1;j++){\n            TokenIdarray[j]= TokenIdarray[j+1];\n        }\n        TokenIdarray.pop();\n\n        emit Transfer(msg.sender, _to, _tokenId);\n    }\n    function transferFrom(address _from, address _to, uint256 _tokenId) external{\n        require(_to != address(0));\n        require(_to != address(this));\n\n        require(cardIndexToApproved[_tokenId] == msg.sender);\n        require(mapCardOwner[_tokenId] == _from);\n        mapOwnerCardsAccount[_to].push(_tokenId);\n        mapCardOwner[_tokenId] = _to;\n\n        uint256[] storage TokenIdarray = mapOwnerCardsAccount[_from];\n        uint256 Index = 0;\n        for(uint256 i = 0; i< TokenIdarray.length;i++ ){\n            if(TokenIdarray[i] == _tokenId){\n                delete TokenIdarray[i];\n                Index = i;\n                break;\n            }\n        }\n        for(uint256 j = Index; j < TokenIdarray.length-1;j++){\n            TokenIdarray[j]= TokenIdarray[j+1];\n        }\n        TokenIdarray.pop();\n        emit Transfer(_from, _to, _tokenId);\n\n    }\n    function supportsInterface(bytes4 ) external view returns (bool){\n        return false;\n\n    }\n\n    /**/\n\n    constructor() public {\n        Card memory card = Card(\"0_index\", 0, false);\n        uint256 cardTokenId=cards.push(card)-1;\n        mapObjectIdToTokenId[card.cardObjid] = cardTokenId;\n        mapCardOwner[cardTokenId] = msg.sender;\n        mapOwnerCardsAccount[msg.sender].push(cardTokenId);\n\n        nftmnger = msg.sender; //deployman is the nftmnger;\n\n    }\n}\n",
  "sourcePath": "/home/hlf/Github/blockchain-learn/data_sign/sc/contracts/CardBase.sol",
  "compiler": {
    "name": "solc",
    "version": "0.5.0+commit.1d4f565a.Emscripten.clang"
  },
  "schemaVersion": "3.0.2",
  "updatedAt": "2019-02-16T03:13:59.550Z",
  "devdoc": {
    "methods": {}
  },
  "userdoc": {
    "methods": {
      "createNtfCard(bytes24,uint256,address,uint8,bytes32,bytes32)": {
        "notice": "////////////////////////////"
      },
      "totalSupply()": {
        "notice": "***********stand erc721 sender operator"
      }
    }
  }
}