{
  "contractName": "LibSignDecode",
  "abi": [
    {
      "constant": true,
      "inputs": [
        {
          "name": "signature",
          "type": "bytes"
        },
        {
          "name": "hashdata",
          "type": "bytes32"
        }
      ],
      "name": "signdecode",
      "outputs": [
        {
          "name": "signature_address",
          "type": "address"
        }
      ],
      "payable": false,
      "stateMutability": "pure",
      "type": "function"
    },
    {
      "constant": true,
      "inputs": [
        {
          "name": "_hashdata",
          "type": "bytes32"
        },
        {
          "name": "_v",
          "type": "uint8"
        },
        {
          "name": "_r",
          "type": "bytes32"
        },
        {
          "name": "_s",
          "type": "bytes32"
        }
      ],
      "name": "signdecodeVRS",
      "outputs": [
        {
          "name": "retaddr",
          "type": "address"
        }
      ],
      "payable": false,
      "stateMutability": "pure",
      "type": "function"
    }
  ],
  "bytecode": "0x608060405234801561001057600080fd5b50610428806100206000396000f3fe60806040526004361061004c576000357c0100000000000000000000000000000000000000000000000000000000900463ffffffff16806343046f1b1461005157806376c73bf8146100ed575b600080fd5b34801561005d57600080fd5b506100ab6004803603608081101561007457600080fd5b8101908080359060200190929190803560ff16906020019092919080359060200190929190803590602001909291905050506101ff565b604051808273ffffffffffffffffffffffffffffffffffffffff1673ffffffffffffffffffffffffffffffffffffffff16815260200191505060405180910390f35b3480156100f957600080fd5b506101bd6004803603604081101561011057600080fd5b810190808035906020019064010000000081111561012d57600080fd5b82018360208201111561013f57600080fd5b8035906020019184600183028401116401000000008311171561016157600080fd5b91908080601f016020809104026020016040519081016040528093929190818152602001838380828437600081840152601f19601f82011690508083019250505050505050919291929080359060200190929190505050610272565b604051808273ffffffffffffffffffffffffffffffffffffffff1673ffffffffffffffffffffffffffffffffffffffff16815260200191505060405180910390f35b600060018585858560405160008152602001604052604051808581526020018460ff1660ff1681526020018381526020018281526020019450505050506020604051602081039080840390855afa15801561025e573d6000803e3d6000fd5b505050602060405103519050949350505050565b60006041835114151561028457600080fd5b6000806000602086015192506040860151915060ff6041870151169050601b8160ff1610156102b457601b810190505b601b8160ff1614806102c95750601c8160ff16145b15156102d457600080fd5b60606040805190810160405280601c81526020017f19457468657265756d205369676e6564204d6573736167653a0a3332000000008152509050600181876040516020018083805190602001908083835b60208310151561034a5780518252602082019150602081019050602083039250610325565b6001836020036101000a038019825116818451168082178552505050505050905001828152602001925050506040516020818303038152906040528051906020012083868660405160008152602001604052604051808581526020018460ff1660ff1681526020018381526020018281526020019450505050506020604051602081039080840390855afa1580156103e6573d6000803e3d6000fd5b505050602060405103519450505050509291505056fea165627a7a72305820787ae8669504032ad41037909822722b7f47c14b677a6c910e7035ecf71b52af0029",
  "source": "pragma solidity >=0.4.21 <0.6.0;\ncontract LibSignDecode {\n    //signedStr\n    //HashValue\n    function signdecode(bytes memory signature, bytes32 hashdata) public pure returns (address signature_address){\n        require(signature.length == 65);\n\n        bytes32 r;\n        bytes32 s;\n        uint8 v;\n\n\n        assembly {\n            r := mload(add(signature, 32))\n            s := mload(add(signature, 64))\n            v := and(mload(add(signature, 65)), 255)\n        }\n\n        // Version of signature should be 27 or 28, but 0 and 1 are also possible\n        if (v < 27) {\n            v += 27;\n        }\n\n        require(v == 27 || v == 28);\n\n        /* prefix is needed for geth only\n        * https://github.com/ethereum/go-ethereum/issues/3731\n        */\n        bytes memory prefix = \"\\x19Ethereum Signed Message:\\n32\";\n\n        signature_address = ecrecover(keccak256(abi.encodePacked(prefix, hashdata)), v, r, s);\n    }\n    function signdecodeVRS(bytes32 _hashdata,uint8 _v, bytes32 _r, bytes32 _s) public pure returns(address retaddr){\n        retaddr = ecrecover(_hashdata,_v,_r,_s);\n    }\n\n\n}\n",
  "sourcePath": "/home/hlf/Github/blockchain-learn/data_sign/sc/contracts/LibSignDecode.sol",
  "compiler": {
    "name": "solc",
    "version": "0.5.0+commit.1d4f565a.Emscripten.clang"
  },
  "schemaVersion": "3.0.2",
  "updatedAt": "2019-02-16T03:13:59.554Z",
  "devdoc": {
    "methods": {}
  },
  "userdoc": {
    "methods": {}
  }
}