{
  "contractName": "SignCheck",
  "abi": [
    {
      "constant": false,
      "inputs": [
        {
          "name": "hash",
          "type": "bytes32"
        },
        {
          "name": "v",
          "type": "uint8"
        },
        {
          "name": "r",
          "type": "bytes32"
        },
        {
          "name": "s",
          "type": "bytes32"
        }
      ],
      "name": "check",
      "outputs": [],
      "payable": false,
      "stateMutability": "nonpayable",
      "type": "function",
      "signature": "0x60edf150"
    },
    {
      "constant": false,
      "inputs": [],
      "name": "GetAddr",
      "outputs": [
        {
          "name": "ret",
          "type": "address"
        }
      ],
      "payable": false,
      "stateMutability": "nonpayable",
      "type": "function",
      "signature": "0x1135e96e"
    }
  ],
  "bytecode": "0x608060405234801561001057600080fd5b50610205806100206000396000f3fe60806040526004361061004c576000357c0100000000000000000000000000000000000000000000000000000000900463ffffffff1680631135e96e1461005157806360edf150146100a8575b600080fd5b34801561005d57600080fd5b50610066610104565b604051808273ffffffffffffffffffffffffffffffffffffffff1673ffffffffffffffffffffffffffffffffffffffff16815260200191505060405180910390f35b3480156100b457600080fd5b50610102600480360360808110156100cb57600080fd5b8101908080359060200190929190803560ff169060200190929190803590602001909291908035906020019092919050505061012d565b005b60008060009054906101000a900473ffffffffffffffffffffffffffffffffffffffff16905090565b60018484848460405160008152602001604052604051808581526020018460ff1660ff1681526020018381526020018281526020019450505050506020604051602081039080840390855afa15801561018a573d6000803e3d6000fd5b505050602060405103516000806101000a81548173ffffffffffffffffffffffffffffffffffffffff021916908373ffffffffffffffffffffffffffffffffffffffff1602179055505050505056fea165627a7a723058207a6654033bf05faccd36f34fe3173ca1dcb80027821b391e5b172acd63ee6e3d0029",
  "source": "pragma solidity >=0.4.21 <0.6.0;\n\ncontract SignCheck {\n\n    address retAddr;\n    function check(bytes32 hash, uint8 v, bytes32 r, bytes32 s) public{\n        retAddr = ecrecover(hash, v, r, s);\n    }\n    function GetAddr() public returns(address ret){\n        ret = retAddr;\n    }\n\n}\n",
  "sourcePath": "/home/hlf/MyGithub/ntfserve/sc/cardntf/contracts/SignCheck.sol",
  "compiler": {
    "name": "solc",
    "version": "0.5.0+commit.1d4f565a.Emscripten.clang"
  },
  "schemaVersion": "3.0.1",
  "updatedAt": "2019-01-12T05:11:42.430Z",
  "devdoc": {
    "methods": {}
  },
  "userdoc": {
    "methods": {}
  }
}