{
  "contractName": "TwoNumber",
  "abi": [
    {
      "anonymous": false,
      "inputs": [
        {
          "indexed": false,
          "name": "n1",
          "type": "uint256"
        },
        {
          "indexed": false,
          "name": "n2",
          "type": "uint256"
        }
      ],
      "name": "eventSetNum",
      "type": "event",
      "signature": "0x8a4c80d653511de260d954170d770080a3cea7eed0eff67e3aa88eaa9992ea1f"
    },
    {
      "constant": false,
      "inputs": [
        {
          "name": "_n1",
          "type": "uint256"
        },
        {
          "name": "_n2",
          "type": "uint256"
        }
      ],
      "name": "SetNum",
      "outputs": [
        {
          "name": "",
          "type": "bool"
        }
      ],
      "payable": false,
      "stateMutability": "nonpayable",
      "type": "function",
      "signature": "0x84ed1521"
    },
    {
      "constant": true,
      "inputs": [],
      "name": "GetNum1",
      "outputs": [
        {
          "name": "ret",
          "type": "uint256"
        }
      ],
      "payable": false,
      "stateMutability": "view",
      "type": "function",
      "signature": "0x429ed648"
    },
    {
      "constant": true,
      "inputs": [],
      "name": "GetNum2",
      "outputs": [
        {
          "name": "ret",
          "type": "uint256"
        }
      ],
      "payable": false,
      "stateMutability": "view",
      "type": "function",
      "signature": "0x468ff362"
    }
  ],
  "bytecode": "0x608060405234801561001057600080fd5b506101a7806100206000396000f3fe608060405260043610610057576000357c0100000000000000000000000000000000000000000000000000000000900463ffffffff168063429ed6481461005c578063468ff3621461008757806384ed1521146100b2575b600080fd5b34801561006857600080fd5b5061007161010f565b6040518082815260200191505060405180910390f35b34801561009357600080fd5b5061009c610118565b6040518082815260200191505060405180910390f35b3480156100be57600080fd5b506100f5600480360360408110156100d557600080fd5b810190808035906020019092919080359060200190929190505050610122565b604051808215151515815260200191505060405180910390f35b60008054905090565b6000600154905090565b600082600081905550816001819055507f8a4c80d653511de260d954170d770080a3cea7eed0eff67e3aa88eaa9992ea1f600054600154604051808381526020018281526020019250505060405180910390a19291505056fea165627a7a723058201e0d021c7c6bb31faff40050ff914fe8acd00dd0313eaa9dd4f29d75c37a2e5c0029",
  "source": "pragma solidity >=0.4.21 <0.6.0;\n\ncontract TwoNumber{\n    uint256  Num1;\n    uint256  Num2;\n    event eventSetNum(uint256 n1, uint256 n2);\n    function SetNum(uint256 _n1, uint256 _n2) public returns(bool){\n        Num1 = _n1;\n        Num2 = _n2;\n        emit eventSetNum(Num1, Num2);\n    }\n    function GetNum1() public view returns(uint256 ret){\n        ret = Num1;\n    }\n    function GetNum2() public view returns(uint256 ret){\n        ret = Num2;\n    }\n}",
  "sourcePath": "/home/hlf/Github/blockchain-learn/offdeployandcall/sc/contracts/TwoNumber.sol",
  "compiler": {
    "name": "solc",
    "version": "0.5.0+commit.1d4f565a.Emscripten.clang"
  },
  "schemaVersion": "3.0.2",
  "updatedAt": "2019-02-16T07:00:18.476Z",
  "devdoc": {
    "methods": {}
  },
  "userdoc": {
    "methods": {}
  }
}