{
  "contractName": "Test",
  "abi": [
    {
      "anonymous": false,
      "inputs": [
        {
          "indexed": false,
          "name": "a",
          "type": "address"
        }
      ],
      "name": "ecrecoveEvent",
      "type": "event"
    },
    {
      "constant": false,
      "inputs": [
        {
          "name": "msgHash",
          "type": "bytes32"
        },
        {
          "name": "v",
          "type": "uint8"
        },
        {
          "name": "r",
          "type": "bytes32"
        },
        {
          "name": "s",
          "type": "bytes32"
        }
      ],
      "name": "k_ecrecover",
      "outputs": [
        {
          "name": "",
          "type": "address"
        }
      ],
      "payable": false,
      "stateMutability": "nonpayable",
      "type": "function"
    }
  ],
  "bytecode": "0x608060405234801561001057600080fd5b50610201806100206000396000f300608060405260043610610041576000357c0100000000000000000000000000000000000000000000000000000000900463ffffffff168063af819f8714610046575b600080fd5b34801561005257600080fd5b5061009e6004803603810190808035600019169060200190929190803560ff169060200190929190803560001916906020019092919080356000191690602001909291905050506100e0565b604051808273ffffffffffffffffffffffffffffffffffffffff1673ffffffffffffffffffffffffffffffffffffffff16815260200191505060405180910390f35b600080600186868686604051600081526020016040526040518085600019166000191681526020018460ff1660ff1681526020018360001916600019168152602001826000191660001916815260200194505050505060206040516020810390808403906000865af115801561015a573d6000803e3d6000fd5b5050506020604051035190507f3283c4a22dbe0acd10880cedf5617ea72e4c1494f9bf9fad2e7eed8e9ed1d7d681604051808273ffffffffffffffffffffffffffffffffffffffff1673ffffffffffffffffffffffffffffffffffffffff16815260200191505060405180910390a1809150509493505050505600a165627a7a723058208e5cb10c1060288930e8a41b77e88f834a68c55a514c312922bc5da1a83144bc0029",
  "source": "pragma solidity ^0.4.24;\ncontract Test {\n\tevent ecrecoveEvent(address  a);\n\tfunction k_ecrecover(bytes32 msgHash, uint8 v, bytes32 r, bytes32 s) public  returns(address) {\n\t    address ret =  ecrecover(msgHash,v,r,s);\n        emit ecrecoveEvent(ret);\n        return ret;\n    }\n}\n",
  "sourcePath": "/home/hlf/Test/Test/contracts/Test.sol",
  "compiler": {
    "name": "solc",
    "version": "0.4.25+commit.59dbf8f1.Emscripten.clang"
  },
  "schemaVersion": "2.0.2",
  "updatedAt": "2019-01-16T04:53:06.000Z"
}